:100000000200D3FFFFFFFFFFFFFFFFFFFFFFFFFF28
:10001000FFFFFF0227FEFFFFFFFFFFFFFFFFFFFFC6
:10002000FFFFFFFFFFFFFFFFFFFFFFFFFFFFFFFFE0
:10003000FFFFFFFFFFFFFFFFFFFFFFFFFFFFFFFFD0
:10004000FFFFFF022A5DFFFFFFFFFFFFFFFFFFFF34
:10005000FFFFFFFFFFFFFFFFFFFFFF022AB5FFFFCC
:10006000FFFFFFFFFFFFFFFFFFFFFFFFFFFFFFFFA0
:10007000FFFFFFFFFFFFFFFFFFFFFFFFFFFFFFFF90
:10008000FFFFFF0225E200000080FB1200E2B90042
:10009000030200CDE490F1FF78A379058002F0A37C
:1000A000D8FCD9FA90F6A1AA82AB839000E57852E9
:1000B00079018015E493A3AC82AD838A828B83F0AF
:1000C000A3AA82AB838C828D83D8E9D9E7121797D4
:1000D00012008675D0007581AF7510FF7511F102A1
:1000E000008B7901224F4B0D004552520D00140038
:1000F00000000800000000000000070000000600EB
:1001000000000000010003000000FD000000891352
:100110000000E9030000F501000004000000830571
:100120008306830783088309830A220B220C0100BC
:1001300000000D00000043AE010022FF43AE02228A
:100140007C0F7B007F047E0075920090F00075921A
:1001500001EB23232440F585758400759201E0A30B
:10016000759200F0A3DEF4DFF2EB23F5AD75AC0081
:1001700075AE0100E5AE20E7FB90F0007F027E0047
:1001800075AE027D02E0A3F5AFDDFAE5AE20E6FB39
:10019000DEF1DFEF0B75AE00DCAA020000E0667056
:1001A0001008A3E066700A08A3E066700408A3E0E4
:1001B0006622C3E7960809E7960809E7960809E763
:1001C00096227009080808226016181818C6C3334A
:1001D000C608C633C608C633C608C633C6D5E0EA65
:1001E00022E627F60809E637F60809E637F6080991
:1001F000E637F622E026F008A3E036F008A3E03662
:10020000F008A3E036F022C3E0C696F608A3E0C6E5
:1002100096F608A3E0C696F608A3E0C696F622E096
:10022000F608A3E0F608A3E0F608A3E0F622E6F05D
:1002300008A3E6F008A3E6F008A3E6F022CAC0E0AF
:10024000E6F0A308DAFAD0E0FA22CAC0E0E0A3C5DB
:1002500082CCC582C583CDC583F0A3C582CCC582BF
:10026000C583CDC583DAE6D0E0CA22C3E498F8E4BA
:1002700099F91202AC8026C3E49AFAE49BFBE920C8
:10028000E7E91202ACE498F8E499F922C3E498F89B
:10029000E499F91202ACE498F8E499F9C3E49AFA03
:1002A000E49BFB22EB20E7CFE920E7E0B90010BB9D
:1002B0000008E88AF084F8AAF022E4FBC8FA22EBEE
:1002C00070227B10C833C8C933C9335007C39AC3DF
:1002D000DBF280069A50012ADBEAC833F4C8C9333E
:1002E000F4C9FA2275F008E4C833C8C933C933C960
:1002F0009AC99B5004C92AC93BD5F0ECFBC833F41A
:10030000C8E4C9FA22600D08C6A2E713C618C613CE
:10031000C6D5E0F322600C08C6C313C618C613C6C0
:10032000D5E0F422700422600D18C6C333C608C697
:1003300033C6D5E0F41822251010AF08F51040029E
:1003400015118008F51040021511D2AF22C0D0253A
:100350001010AF08F510500205118008F51050027A
:100360000511D2AFD0D0222510F58210AF08F510BC
:10037000400215118008F51040021511D2AF851109
:1003800083222510F582E43511F58322E4732510CC
:10039000C582C0E0E51134FFC583C0E0E510C39518
:1003A0008224F9F8E4C5A8858311858210C5A8E8E0
:1003B000CEF0A3E520F0A37808E608F0A3DEFAEF7C
:1003C000F0A3E58124FBF8E608F0A3E608F0A30813
:1003D00008E608F0A3E608F0A315811581D0E0FE39
:1003E000D0E0F815811581E8C0E0EEC0E02285116B
:1003F00083851082E0A3FEE0A3F5207808E0A3F651
:1004000008DFFAE0A3FFE0A3C0E0E0A3C0E0E0A3C0
:10041000C0E0E0A3C0E0E4C5A8858210858311C5D3
:10042000A8D083D08222C0D02510C582C0E0E511BB
:1004300034FFC583C0E0E510C3958224F310AF08F4
:100440008583118582108008858311858210D2AF43
:10045000C8F0A3E9F0A3EAF0A3EBF0A37908E70959
:10046000F0A3D8FAECF0A3EDF0A3EEF0A3EFF0A325
:10047000D0E0F0A3D0E0F0A3D0E0F0A3E520F0A31B
:10048000E5F0F0A322851183851082E0C0E0A3E0AF
:10049000F9A3E0FAA3E0FBA37808E0F608A3DFFAEB
:1004A000E0FCA3E0FDA3E0FEA3E0FFA3E0C0E0A327
:1004B000E0C0E0A3E0F5D0A3E0F520A3E0A3F5F0D1
:1004C000E4C5A8858311858210C5A8D082D083D0C9
:1004D000E0F8D0E0327404800474028000C0E0F4DC
:1004E00004120367D0E012023D2274028000CCC0E7
:1004F000E0EDC0E0E510C39CCCAD1150011D10AF84
:10050000068C108D1180068C108D11D2AF12024A0C
:10051000D0E0FDD0E0FC22D083D082C5F0E493A3EC
:10052000C5F0C395F0F5F0E493A3C395F04005E55D
:10053000F0048001E475F002A42582F582E5F0352F
:1005400083F583E493A3C0E0E493C0E022D083D09A
:1005500082E9C0E0E493A3C386F0C5F095F0F90802
:10056000E493A386F0C5F095F0702408E493A38685
:10057000F0C5F095F0701908E493A386F0C5F095E6
:10058000F0700E08E493A3C3994007E9048004A324
:10059000A3A3E475F002A42582F582E5F03583F586
:1005A00083D0E0F9E493A3C0E0E493C0E022D083D9
:1005B000D082CCC0E0E493A360061205D81470FA90
:1005C000E493A360061205F71470FAD0E0FCE493FC
:1005D000A3C0E0E493C0E022C0E0E493A3D39C5026
:1005E00010E493A3C39C400AD0E0D0E0D0E0020521
:1005F000CBA3A3A3D0E022C0E0E493A36C7009D006
:10060000E0D0E0D0E00205CBA3A3D0E0224143013B
:10061000415002424403434304434805444E0644C8
:10062000520745450849440949320A4B590B4D596F
:100630000C4E540D50430E50470F504B10504C1160
:10064000524512524F13534D14565215575216001D
:1006500000007CA17DF67A6A7BF412194B227CA5FE
:100660007DF67A6A7BF412194B22C082C083740033
:100670006A700374006B70030208877A737BF4124C
:1006800019F5E990F222F090F222E0640D704D909D
:10069000F21FE06402601090F21FE06405600890B1
:1006A000F21FE06406703590F220E0F87900E875FA
:1006B000F003A4C8AAF075F000A42AFA75F003E9C3
:1006C000A42AF9E8240FF582E93406F583E493F9C6
:1006D00012088C740090F21FF002088790F21FE05D
:1006E00012051700068108F506090730079D076EF9
:1006F000084408340890F222E064417009740190C3
:10070000F21FF002088702088190F222E064547020
:1007100015740290F21FF0740090F220F0740090B3
:10072000F221F002088702088190F220E02401F013
:1007300090F220E0F87900E875F003A4C8AAF075FB
:10074000F000A42AFA75F003E9A42AF9E8240DF5CB
:1007500082E93406F583E493603990F220E0F87979
:1007600000E875F003A4C8AAF075F000A42AFA7591
:10077000F003E9A42AF9E8240DF582E93406F583AB
:10078000E493FA90F222E06A709F740390F21FF0F3
:1007900002088702088190F220E02401F090F22004
:1007A000E0F87900E875F003A4C8AAF075F000A499
:1007B0002AFA75F003E9A42AF9E8240EF582E9344F
:1007C00006F583E493FA90F222E06A605F90F220EB
:1007D000E0F87900E875F003A4C8AAF075F000A469
:1007E0002AFA75F003E9A42AF9E8240DF582E93420
:1007F00006F583E493FB90F220E0F87900E875F0C9
:1008000003A4C8AAF075F000A42AFA75F003E9A4BD
:100810002AF9E82410F582E93406F583E4936B7035
:1008200003020796740490F21FF0805B740690F246
:100830001FF0805390F222E064207045740590F21E
:100840001FF0804390F222E0C0E090F221E07900B6
:1008500024FFF582E934F1F583D0E0F090F221E055
:100860002401F090F221E0C394205015801990F2F9
:1008700022E0640D700B12065E740090F21FF0808F
:1008800006740490F21FF0D083D0822274F1120318
:100890008EE9FE90F221E0F97AFF7BF1122BE78AD4
:1008A000088B098C0A8D0BEE1205170016DE0DDD84
:1008B00008E3083F094509A209A809070A130A7CA9
:1008C0000A820A100B9E0BA40BF30B480C740C80CD
:1008D0000CEA0CF00CF90C900D950DD00D1206528F
:1008E000020DDE12065212282890F6AA780812028B
:1008F0001FAA08AB09AC0AAD0B122B4090F241E0E5
:10090000541C1313543FF912271790F252E0540766
:10091000F508E4F509F50AF50B78081204D590F20C
:1009200052E05438131313541FF508AA08E4FBFCD3
:10093000FD121D75740412034D122371020DDE1297
:10094000065E020DDE90F221E0702390F241E05449
:100950001C1313543FF9122C707A6A7BF41218A1FD
:10096000790D7A6A7BF41218A1120652803190F642
:10097000AE780C12021F780C79081201B2501DE5F6
:1009800008333354FC541CC0E090F241E054E3FAC5
:10099000D0E04A90F241F0120652800312065E0245
:1009A0000DDE12065E020DDE90F221E0701F90F265
:1009B00052E05407F9122C707A6A7BF41218A1796C
:1009C0000D7A6A7BF41218A1120652803790F6B2A3
:1009D000780812019D602A90F6B6780C12021F78F2
:1009E0000C79081201B25019E5085407C0E090F2E2
:1009F00052E054F8FAD0E04A90F252F012065280D7
:100A00000312065E020DDE120652740090F229F007
:100A1000020DDE90F221E0702490F252E05438137F
:100A20001313541FF9122C707A6A7BF41218A179EF
:100A30000D7A6A7BF41218A1120652803C90F6B22D
:100A4000780812019D602F90F6BA780C12021F7878
:100A50000C79081201B2501EE50833333354F854B0
:100A600038C0E090F252E054C7FAD0E04A90F25217
:100A7000F0120652800312065E020DDE12065E02BE
:100A80000DDE90F221E0706290F23BE0F508A3E009
:100A9000F509740C7808120315A908122C707A6AEB
:100AA0007BF41218A190F23BA3E0F9E9540FF9127C
:100AB0002C707A6A7BF41218A190F23BE0C4540FB8
:100AC000F9122C707A6A7BF41218A190F23BE05470
:100AD0000FF9122C707A6A7BF41218A1790D7A6AD8
:100AE0007BF41218A1120652802390F6BE780C12E5
:100AF000021F780C79081201B2500F90F23BE50802
:100B0000F0A3E509F0120652800312065E020DDE24
:100B100090F221E0706290F255E0F508A3E0F5094B
:100B2000740C7808120315A908122C707A6A7BF4E9
:100B30001218A190F255A3E0F9E9540FF9122C70A4
:100B40007A6A7BF41218A190F255E0C4540FF9129E
:100B50002C707A6A7BF41218A190F255E0540FF9C8
:100B6000122C707A6A7BF41218A1790D7A6A7BF4E0
:100B70001218A1120652802390F6BE780C12021FA2
:100B8000780C79081201B2500F90F255E508F0A3E5
:100B9000E509F0120652800312065E020DDE12060F
:100BA0005E020DDE90F221E0702690F239E0F97AD3
:100BB0006A7BF41218A190F23AE0F97A6A7BF41297
:100BC00018A1790D7A6A7BF41218A11206528020BE
:100BD00090F221E06402701590F1FFE090F239F09C
:100BE00090F200E090F23AF0120652800312065E94
:100BF000020DDE90F221E0701F90F240E0540FF9F8
:100C0000122C707A6A7BF41218A1790D7A6A7BF43F
:100C10001218A1120652802D90F6C2780C12021FF3
:100C2000780C79081201B25019E508540FC0E09011
:100C3000F240E054F0FAD0E04A90F240F01206524E
:100C4000800312065E020DDE907C00E064FF601EF1
:100C500012065212282890F6AA780812021FAA0833
:100C6000AB09AC0AAD0B122B40121D2A80031206F1
:100C70005E020DDE120652740590F229F0020DDEBE
:100C800090F221E0703190F23DE0C4540FF9122C43
:100C9000707A6A7BF41218A190F23DE0540FF912B9
:100CA0002C707A6A7BF41218A1790D7A6A7BF4129F
:100CB00018A1120652803090F6C2780C12021F78EA
:100CC0000C79081201B2401C90F6C6780C12021F73
:100CD000780C79081201B2500BE50890F23DF01241
:100CE0000652800312065E020DDE12065E020DDE63
:100CF000121B71120652020DDE90F221E07062901A
:100D0000F23EE0F508A3E0F509740C78081203152B
:100D1000A908122C707A6A7BF41218A190F23EA3F3
:100D2000E0F9E9540FF9122C707A6A7BF41218A1D9
:100D300090F23EE0C4540FF9122C707A6A7BF412E0
:100D400018A190F23EE0540FF9122C707A6A7BF4ED
:100D50001218A1790D7A6A7BF41218A1120652803A
:100D60007D90F6B2780812019D602090F6BE780C56
:100D700012021F780C79081201B2500F90F23EE572
:100D800008F0A3E509F0120652805312065E804E69
:100D900012065E80497900122C707A6A7BF4121870
:100DA000A1792E7A6A7BF41218A17900122C707A3C
:100DB0006A7BF41218A17909122C707A6A7BF412FA
:100DC00018A1790D7A6A7BF41218A1120652800ECE
:100DD000121AFEE96005120652800312065E7F08B1
:100DE0000203EE74F712038E74006A700374006BD2
:100DF00070030210A07A737BF41219F5E990F222C5
:100E0000F090F21FE0120517000DA010280E960EAC
:100E1000A70EC00EE10E090F370F610F8F0FA80F3D
:100E2000E00F091064107C1090F222E06457600813
:100E300090F222E06456700E740190F21FF090F26E
:100E400022E090F228F090F222E0F97A6A7BF41224
:100E500018A190F222E06457703090F2237400F0F1
:100E6000A37440F0801790F223E0FAA3E0FB121C79
:100E7000F190F223E02400F0A3E03404F090F22398
:100E8000C3E09400A3E0948040DC79527A6A7BF45A
:100E90001218A10210A090F222E0643A70067402C7
:100EA00090F21FF00210A090F222E0F9122BA3E9B9
:100EB000C454F090F220F0740390F21FF00210A0DE
:100EC00090F222E0F9122BA3E9FA90F220E04AF026
:100ED00090F220E090F225F0740490F21FF00210DE
:100EE000A090F222E0F9122BA3E9F508750900742D
:100EF0000C780812032490F223E508F0A3E509F02A
:100F0000740590F21FF00210A090F222E0F9122B6B
:100F1000A3E9F8E4C8F990F223E048F0A3E049F02F
:100F2000740690F21FF090F223A3E0F9E9F890F232
:100F300025E028F00210A090F222E0F9122BA3E99C
:100F4000F5087509007404780812032490F223E070
:100F50004508F0A3E04509F0740790F21FF0021075
:100F6000A090F222E0F9122BA3E9F5087509009090
:100F7000F223E04508F0A3E04509F0740890F21F61
:100F8000F090F223E0F890F225E028F00210A09013
:100F9000F222E0F9122BA3E9C454F090F227F07486
:100FA0000990F21FF00210A090F222E0F9122BA398
:100FB000E9FA90F227E04AF090F227E0FA90F22561
:100FC000E02AF090F220E0600E740A90F21FF074B4
:100FD0000090F221F08006740C90F21FF00210A035
:100FE00090F222E0F9122BA3E9C454F0C0E090F291
:100FF00021E0790024FFF582E934F1F583D0E0F0B7
:10100000740B90F21FF00210A090F222E0F9122B64
:10101000A3E9FA90F221E0790024FFF582E934F1A6
:10102000F583E04AF090F221E0790024FFF582E9AF
:1010300034F1F583E0FA90F225E02AF090F221E015
:101040002401F090F221E0C0E090F220E0FAD0E03C
:10105000C39A5008740A90F21FF08044740C90F206
:101060001FF0803C90F222E0F9122BA3E9C454F067
:1010700090F226F0740D90F21FF0802490F222E09E
:10108000F9122BA3E9FA90F226E04AF090F226E05A
:10109000FA90F225E02AF0740190F21FF01210A5E8
:1010A0007F020203EE74F712038E90F225E0600CCB
:1010B000794E7A6A7BF41218A10211D779417A6AC3
:1010C0007BF41218A190F227E0600302118390F2E2
:1010D00023C3E09400A3E0943C400302118390F208
:1010E00028E06457702890F220E0F5087509007830
:1010F000081204D990F223E02400FCA3E03440FD60
:101100007AFF7BF1121BDB740212034D80737400B3
:1011100090F221F0800790F221E02401F090F2217A
:10112000E0C0E090F220E0FAD0E0C39A505390F291
:1011300021E0790024FFF582E934F1F583E0FA90AB
:10114000F223C082C08390F221E0F87900D083D0EE
:1011500082E028F8A3E039F9E82400F582E9344078
:10116000F583E4936A60AF794E7A6A7BF41218A132
:10117000796E7A6A7BF41218A1740090F21FF080E5
:1011800056804B90F227E06401704379527A6A7B73
:10119000F41218A179797A6A7BF41218A17400907C
:1011A000F21FF0740090F229F090F228E06457707A
:1011B0002675082075090078081204D97C007D7C0A
:1011C0007A397BF2121BDB740212034D80097952CB
:1011D0007A6A7BF41218A17F020203EE74F1120303
:1011E0008E90F477C082C08390F479E0F8A3E0F9A0
:1011F000D083D082C3E098A3E099401D90F477C0DB
:1012000082C08390F479E0F8A3E0F9D083D082E043
:10121000C398FEA3E099FF802590F475C082C08337
:1012200090F479E0F8A3E0F9D083D082E0C398F895
:10123000A3E099F990F477E028FEA3E039FF740069
:101240006E700374006F60030212CC90F229E0709C
:101250001290F47C780812021F90F22B7808120288
:101260002E806690F229E06401702C122A9B8A0C71
:101270008B0D8C0E8D0F90F22B780C12020790F6CE
:10128000CA780812021F7808790C1201B24008745B
:101290000090F229F0803290F229E06405702A1261
:1012A0002A9B8A0C8B0D8C0E8D0F90F22B780C12D2
:1012B000020790F6CE780812021F7808790C120106
:1012C000B24006740090F229F00214DB90F229E09B
:1012D000705E122A9B8A0C8B0D8C0E8D0F90F22B58
:1012E000780C12020790F6CE780812021F7808795F
:1012F0000C1201B2403A90F479E0F8A3E0F990F4CE
:1013000073E028FAA3E0398A82F583E0FA90F25478
:10131000E06A701C740290F229F0122A9B8A088BF2
:10132000098C0A8D0B90F22B780812022E0214DB26
:1013300090F229E070030214DB90F229E06405705A
:101340001A90F47C780812021F90F22B780812028F
:101350002EEEFAEFFB120DE30214DB90F229E064AB
:1013600001701A90F47C780812021F90F22B780812
:1013700012022EEEFAEFFB12066A0214DB90F2293B
:10138000E06404602D122A9B8A0C8B0D8C0E8D0F4D
:1013900090F22B780C12020790F6CE780812021FFA
:1013A0007808790C1201B24009740090F229F00219
:1013B00014DB90F229E064027047C3EE9402EF94CC
:1013C00000403E90F479E02401F8A3E03400F99065
:1013D000F475E0FAA3E0FB1202AC90F473E02AFC8F
:1013E000A3E03B8C82F583E0FA90F254E06A700847
:1013F000740390F229F08006740090F229F0021430
:10140000DB90F229E06403705AC3EE9403EF94007A
:10141000405190F479E02402F8A3E03400F990F40C
:1014200075E0FAA3E0FB1202AC90F473E02AFCA38F
:10143000E03B8C82F583E0FA90F254E06A701C7411
:101440000490F229F0122A9B8A088B098C0A8D0BD2
:1014500090F22B780812022E0214DB740090F2290D
:10146000F0807890F229E064047070C3EE9404EF89
:1014700094004008740090F229F0805F122A9B8A41
:101480000C8B0D8C0E8D0F90F22B780C12020790A6
:10149000F6CE780812021F7808790C1201B2403B90
:1014A000740190F229F090F479E02403F8A3E03479
:1014B00000F990F475E0FAA3E0FB1202AC90F47925
:1014C000EAF0A3EBF0120652122A9B8A088B098CD1
:1014D0000A8D0B90F22B780812022E90F229E07000
:1014E0000A90F240E0540F6402606D90F229E060CF
:1014F000030216AA74006E700374006F7003021664
:10150000AA90F461E0641070030216AA122A9B8A62
:101510000C8B0D8C0E8D0F90F22F780C1202079011
:10152000F6BA780812021F7808790C1201B250033B
:101530000216AA90F23DE0F8790074FE28F874FFD4
:1015400039F9C3EE98EF9950030216047E03021591
:10155000D37A737BF412196C90F477E0F8A3E0F976
:1015600090F479E0687003A3E06970E590F22AE0F6
:10157000603F90F461E064106037740090F22AF0EC
:1015800090F45BE0600D90F23BE0FAA3E0FB1223E5
:101590000B800B90F255E0FAA3E0FB12230B122A0A
:1015A0009B8A088B098C0A8D0B90F22F7808120207
:1015B0002E0216AA7A737BF412196CE9C0E08E0829
:1015C000750900E5082459F582E50934F2F583D060
:1015D000E0F00E90F23DE0C39E50D990F23DE090D5
:1015E000F259F090F23BE0FAA3E0FB12230B122A2F
:1015F0009B8A088B098C0A8D0B90F22F78081202B7
:101600002E0216AA74006E700374006F7003021627
:10161000AA122A9B8A0C8B0D8C0E8D0F90F23EE045
:10162000F508A3E0F509E4F50AF50B90F47C780CD5
:10163000120207780C79081201B2506E740290F20F
:1016400059F0802390F259E02401F07A737BF41270
:10165000196CE9C0E090F259E079002459F582E96B
:1016600034F2F583D0E0F090F477E0F8A3E0F9905D
:10167000F479E0687003A3E069601190F23DE0C086
:10168000E090F259E0FAD0E0C39A50B890F23BE013
:10169000FAA3E0FB12230B122A9B8A088B098C0AFF
:1016A0008D0B90F22F780812022E7F080203EE7441
:1016B000F712038E90F240E0540F6402703D7E00FA
:1016C00080298E08750900E5082458F582E509345B
:1016D000F3F583E0C0E08E08750900E5082459F5AC
:1016E00082E50934F2F583D0E0F00E90F358E0C3C0
:1016F0009E50CF740190F22AF0803790F229E06476
:1017000001602F90F229E0640560277E03801B8E24
:1017100008750900E5082458F582E50934F3F583D6
:10172000E0F97A6A7BF41218A10E90F358E0C39E98
:1017300050DD7F020203EE74F112038E122A9B8A9F
:10174000088B098C0A8D0B90F234780812020790EE
:10175000F6D2780C12021F780C79081201B24018E8
:10176000639080E590122A9B8A088B098C0A8D0B66
:1017700090F234780812022E90F461E06410700444
:10178000D2878002C2871223C612242B1211DC12C8
:1017900028287F080203EE53BEFBE5BEA2E650FAFE
:1017A00053C6B8E5C6E5C6A2E640FA43BE04122B0E
:1017B0002D53F5F9E5F543FF0853F76FE5F7C2A39D
:1017C000740090F233F0A2A4400CD2A3A2A450065D
:1017D000740190F233F075FF0090F233E06005126F
:1017E0001B718009121A97E97003121B711227727C
:1017F00090F252E05407F508E4F509F50AF50B7884
:10180000081204D590F252E05438131313541FF504
:1018100008AA08E4FBFCFD121D75740412034D12A6
:10182000237153F47FC29743FE8053F37FC28743F3
:10183000FD80122A9B8A088B098C0A8D0B90F2344A
:10184000780812022E12173780FB74F812038E7478
:1018500008120382E0F8A3E0F98A828B83ECF0A3FC
:10186000EDF08A828B83E064007004A3E064006082
:101870002B8A828B83A3A3E8F0A3E9F07800790098
:101880008A828B83A3A3A3A3A3A3E8F0A3E9F08A8E
:10189000828B83A3A3A3A3E8F0A3E9F07F01020353
:1018A000EE74F712038EEAFCEBFDE9FE8C828D8369
:1018B000A3A3A3A3E02401F8A3E03400F98C828D54
:1018C00083A3A3E0FAA3E0FB1202AC8A088B098C85
:1018D000828D83A3A3A3A3A3A3E065087004A3E060
:1018E0006509701374018C828D83A3A3A3A3A3A3A2
:1018F000A3A3F07901804FEEC0E08C828D83A3A377
:10190000A3A3E0F8A3E0F98C828D83E028FAA3E09A
:10191000398A82F583D0E0F08C828D83A3A3A3A3C0
:10192000E02401F8A3E03400F98C828D83A3A3E0C6
:10193000FAA3E0FB1202AC8C828D83A3A3A3A3EADB
:10194000F0A3EBF079007F020203EE74F812038E2D
:10195000EAFEEBFF8C828D83800AE0F9EEFAEFFB62
:101960001218A1A3E070F37F010203EE74F81203D2
:101970008EEAFCEBFD8C828D83A3A3A3A3E0F8A3E6
:10198000E0F98C828D83A3A3A3A3A3A3E0687003D3
:10199000A3E0697004790080578C828D83A3A3A390
:1019A000A3A3A3E0F8A3E0F98C828D83E028FAA337
:1019B000E0398A82F583E090F238F08C828D83A33F
:1019C000A3A3A3A3A3E02401F8A3E03400F98C822D
:1019D0008D83A3A3E0FAA3E0FB1202AC8C828D837B
:1019E000A3A3A3A3A3A3EAF0A3EBF090F238E0F93A
:1019F0007F010203EE74F812038EEAFCEBFD8C8289
:101A00008D83A3A3A3A3E0F8A3E0F98C828D83A325
:101A1000A3A3A3A3A3E0687003A3E0697004790003
:101A200080708C828D83A3A3A3A3A3A3E0F8A3E07B
:101A3000F98C828D83E028FAA3E0398A82F583E06D
:101A400090F238F08C828D83A3A3A3A3A3A3E024F8
:101A500001F8A3E03400F98C828D83A3A3E0FAA3FC
:101A6000E0FB1202AC8C828D83A3A3A3A3A3A3EA01
:101A7000F0A3EBF090F238E0C39461401090F2389C
:101A8000E0C3947B500790F238E0C2E5F090F23862
:101A9000E0F97F010203EE74F712038E7A007B00F7
:101AA0008008EA2420FAEB3400FBC3EA94E1EB94CB
:101AB00003500F74002AF582743C3BF583E064FF09
:101AC00070E074006A700374006B70047900802900
:101AD000EA24E0FAEB34FFFB75082075090078086A
:101AE0001204D974002AFC743C3BFD7A397BF21253
:101AF0002C80740212034D79017F020203EE74F709
:101B000012038E7A007B008008EA2420FAEB34006E
:101B1000FBC3EA94E1EB9403503074002AF582741D
:101B20003C3BF583E064FF70E075082075090078A0
:101B3000081204D974002AFC743C3BFD7A397BF20C
:101B4000121BDB740212034D80227A007B3C121CB4
:101B5000F175082075090078081204D97C007D3CD5
:101B60007A397BF2121BDB740212034D7F020203EF
:101B7000EEC082C08390F240E054F0F090F241E079
:101B800054E3440C90F241F0742A90F239F0742A34
:101B900090F23AF090F23B74A5F0A3745AF090F2F0
:101BA0005574A5F0A3745AF090F252E054F844052D
:101BB00090F252F090F252E054C7440890F252F082
:101BC000740E90F23DF090F23E7464F0A37400F055
:101BD000742B90F254F0D083D0822274F712038ECB
:101BE0007409120382E0FEA3E0FFEBF9E990F67FAF
:101BF000F0EA90F680F074DF90F681F074AF90F622
:101C000082F090F683E0541FF0EFF9E9541FC0E032
:101C100090F683E054E0FAD0E04A90F683F0EE903C
:101C2000F684F090F685E0C2E7F090F685E0549FE8
:101C3000F090F685E054E0441290F685F090F68638
:101C4000E0543F444090F686F090F686E054CFF0A2
:101C500090F686E0C2E3F090F686E0C2E2F090F6FD
:101C600086E054FC440290F686F079F6E9F5D375E7
:101C7000D277E5AEA2E740FA75AB228C088D0974E5
:101C8000097808120305E508F5AD8C088D09740183
:101C90007808120305E508F5AC43D60400000000FF
:101CA0000000000000000000000000000000000034
:101CB0000000000000000000000000000000000024
:101CC00000000000000000000012013C121CD9E9D5
:101CD00060FA79017F020203EEE5D1A2E2400379C6
:101CE000002274C055AE600379002253D1FB790104
:101CF00022C008C009E5AEA2E740FA75AB228A0807
:101D00008B0974097808120305E508F5AD8A088B7C
:101D10000974017808120305E508F5AC120136E5EF
:101D2000AEA2E740FAD009D0082274F812038E78E8
:101D30004079017A007BF47E007FF4C2AF801C887A
:101D4000828983E08A828B83F088828983A3A88238
:101D5000A9838A828B83A3AA82AB837C9D7D01C3E6
:101D6000E89CE99D40D975AB2275C7018E828F83AF
:101D700012038C80FE74F112038E8A0C8B0D8C0E74
:101D80008D0F740F120382780812021F75E1049000
:101D9000DF36E0640160030222E0780812054D029C
:101DA00000000004B01DCB1DE51DFF1D191E331ED4
:101DB00074C090DF2EF0742390DF09F0743190DF4F
:101DC0000AF0743B90DF0BF0021E4B74C090DF2EC4
:101DD000F0742290DF09F074BB90DF0AF074139066
:101DE000DF0BF0806674C290DF2EF0742190DF0963
:101DF000F0746290DF0AF0747690DF0BF0804C7420
:101E0000C090DF2EF0741090DF09F074AC90DF0A00
:101E1000F0744E90DF0BF0803274C290DF2EF074BD
:101E20002190DF09F0746590DF0AF0746A90DF0B8F
:101E3000F0801874C290DF2EF0740C90DF09F074FB
:101E40001D90DF0AF0748990DF0BF0E50D650E65DB
:101E50000F600302220DE50C1205AE0004016B1E9B
:101E600002372104561F054C200D2290F6D6780823
:101E700012019D70047A0C80027A12EA90DF07F05A
:101E8000741290DF07F0740090DF08F0742D90DF7B
:101E90000CF0743B90DF0DF0741390DF0EF07422A1
:101EA00090DF0FF074F890DF10F0746290DF11F0A3
:101EB00074B690DF1AF0741090DF1BF0741890DF86
:101EC00014F0741D90DF15F0741C90DF16F074C7C9
:101ED00090DF17F0740090DF18F074B090DF19F005
:101EE00074EA90DF1CF090F6D6780812019D700419
:101EF0007A0A80027A2AEA90DF1DF0741F90DF1FB1
:101F0000F0748890DF23F0743190DF24F07409902E
:101F1000DF25F0780812054D0100000002491F2559
:101F20001F311F3D1F90F457744DF0A37400F080D3
:101F30002290F457744DF0A37400F0801690F4577B
:101F4000744DF0A37400F0800A90F4577449F0A324
:101F50007400F00222E090F6D6780812019D700419
:101F60007A0C80027A12EA90DF07F0741290DF0791
:101F7000F0740090DF08F0745B90DF0CF074F89060
:101F8000DF0DF0741390DF0EF0742290DF0FF07409
:101F9000F890DF10F0745590DF11F074B690DF1AEE
:101FA000F0741090DF1BF0741890DF14F0741D9023
:101FB000DF15F0741C90DF16F074C790DF17F07413
:101FC0000090DF18F074B090DF19F074EA90DF1C15
:101FD000F090F6D6780812019D70047A0A80027A91
:101FE0002AEA90DF1DF0741F90DF1FF0748890DFE5
:101FF00023F0743190DF24F0740990DF25F0E509B7
:10200000650A650B7039E5081205AE0004011B2056
:102010000227200333200533203F2090F457744DCE
:10202000F0A37400F0802290F457744DF0A3740074
:10203000F0801690F457744DF0A37400F0800A906D
:10204000F4577449F0A37400F00222E090F6D678B9
:102050000812019D70047A0C80027A12EA90DF0760
:10206000F0741290DF07F0740090DF08F0742A908B
:10207000DF0CF074F890DF0DF0741390DF0EF07445
:102080002290DF0FF074F890DF10F0746290DF118F
:10209000F074B690DF1AF0741090DF1BF074189093
:1020A000DF14F0741D90DF15F0741C90DF16F074CF
:1020B000C790DF17F0740090DF18F074B090DF194C
:1020C000F074E990DF1CF090F6D6780812019D704C
:1020D000047A0A80027A2AEA90DF1DF0741F90DFEA
:1020E0001FF0748890DF23F0743190DF24F07409BE
:1020F00090DF25F0780812054D01000000022A212A
:10210000062112211E2190F457744DF0A37400F0A3
:10211000802290F457744DF0A37400F0801690F470
:1021200057744DF0A37400F0800A90F4577449F08E
:10213000A37400F00222E0740690DF07F0740090B0
:10214000DF08F074CA90DF0CF0748390DF0DF07438
:102150001390DF0EF0742290DF0FF074F890DF1010
:10216000F0743490DF11F0745690DF1AF074109010
:10217000DF1BF0741890DF14F0741690DF15F07404
:102180006C90DF16F0744390DF17F0744090DF1806
:10219000F0749190DF19F074E990DF1CF090F6D69E
:1021A000780812019D70047A0A80027A2AEA90DF88
:1021B0001DF0741F90DF1FF0748190DF23F07435E1
:1021C00090DF24F0740990DF25F0780812054D01A6
:1021D000000000020022DC21E821F42190F4577471
:1021E00049F0A37400F0802290F4577449F0A3746E
:1021F00000F0801690F4577449F0A37400F0800A40
:1022000090F457744AF0A37400F00222E074069030
:10221000DF07F0740090DF08F074F590DF0CF074C5
:102220008390DF0DF0741390DF0EF0742290DF0FB7
:10223000F074F890DF10F0741590DF11F074569080
:10224000DF1AF0741090DF1BF0741890DF14F07434
:102250001690DF15F0746C90DF16F0740390DF17A2
:10226000F0744090DF18F0749190DF19F074E990E9
:10227000DF1CF090F6D6780812019D70047A0A806F
:10228000027A2AEA90DF1DF0741F90DF1FF074813C
:1022900090DF23F0743590DF24F0740990DF25F08F
:1022A000780812054D0100000002D622B222BE229B
:1022B000CA2290F4577449F0A37400F0802290F47D
:1022C000577449F0A37400F0801690F4577449F0E5
:1022D000A37400F0800A90F457744BF0A37400F0DC
:1022E000740090DF06F0743090DF13F0740490DF18
:1022F00003F0744590DF04F0740090DF05F090F275
:102300003DE090DF02F07F080203EE74F812038EC6
:10231000EAFEEBFF75E10475D681741090F461F06C
:102320007910122611439A01759110D2AFEFF9E995
:1023300090F25AF0EE90F25BF043D60100000000FC
:10234000000000000000000000000000000000008D
:10235000000000000000000000000000000000007D
:1023600000000000000000000075E1037F0102038F
:10237000EEC082C08375E10475D681742090F4614B
:10238000F07920122611439A01759110D2AF75D6BB
:10239000010000000000000000000000000000003C
:1023A000000000000000000000000000000000002D
:1023B000000000000000000000000000000075E1C7
:1023C00002D083D0822274F512038E90F460E06014
:1023D00055740090F460F0122457E960161216AF9D
:1023E00090F6C2780812021FAA08AB09AC0AAD0B1E
:1023F000122B4043D6010000000000000000000046
:1024000000000000000000000000000000000000CC
:1024100000000000000000000000000000000000BC
:1024200000000075E1027F040203EE74F512038ED2
:1024300090F45FE0601C740090F45FF090F6C27856
:102440000812021FAA08AB09AC0AAD0B122B4012EE
:1024500023717F040203EEC082C08390F358E079B9
:10246000002459F582E934F3F583E0F91224B090A1
:10247000F459EAF0A3EBF090F358E0C39403402939
:1024800090F23DE0C0E090F358E0FAD0E0C39A400B
:1024900018122524E9600E1225A1E9600479018053
:1024A0000A79008006790080027900D083D08222E8
:1024B00074F712038EE9790090F45CF0A3E9F090D0
:1024C000F45CC3E09480A3E09400A2D265D03350C2
:1024D0002690F45CE0F8A3E0F97A027B001202A4F3
:1024E0008808890990F457E0F8A3E0F9E508C39853
:1024F000FAE50999FB802890F45CE02400F8A3E059
:1025000034FFF97A027B001202A48808890990F44A
:1025100057E0F8A3E0F9E508C398FAE50999FB7FCD
:10252000020203EEC082C08390F359E0C0E090F253
:102530003BA3E0F9E9F8D0E068702690F35AE0C0D8
:10254000E090F23BE0F8D0E0687016740090F35928
:10255000F0740090F35AF0740090F45BF07901800D
:102560003B90F359E0C0E090F255A3E0F9E9F8D0D0
:10257000E068702690F35AE0C0E090F255E0F8D0A1
:10258000E0687016740090F359F0740090F35AF0FC
:10259000740190F45BF0790180027900D083D082DD
:1025A00022C082C08390F358E090F45EF090F45E15
:1025B000E07900245AF582E934F3F583E0A2E7508C
:1025C0001A7400C0E090F45EE07900245AF582E9C4
:1025D00034F3F583D0E0F0790180027900D083D024
:1025E0008222C0E0C0D0C082C08353E9EF539BFC7D
:1025F000E59B90F461E064207008740190F460F051
:102600008006740190F45FF0D083D082D0D0D0E007
:1026100032C082C08390F469E054FCF090F469E029
:10262000C2E2F090F469E0C2E3F090F468E054E0B4
:10263000441390F468F090F468E0549FF090F468CC
:10264000E0C2E7F0741069705F79F2E990F462F02B
:10265000745990F463F074DF90F464F074D990F4DA
:1026600065F090F466E0541F442090F466F090F218
:102670003DE0F87900740128740039F9E9F890F424
:1026800066E054E04890F466F090F23DE02401905A
:10269000F467F090F469E0543F444090F469F0909E
:1026A000F469E054CFF08062742069705D74DF904B
:1026B000F462F074D990F463F079F3E990F464F083
:1026C000745890F465F090F466E0541F448090F4E0
:1026D00066F090F23DE0F87900740328740039F94F
:1026E000E9F890F466E054E04890F466F090F23D2A
:1026F000E0240390F467F090F469E0543FF090F424
:1027000069E054CF441090F469F079F4E9F5D57597
:10271000D462D083D08222C082C083E9FA7B00EAEF
:1027200075F002A4CAACF075F000A42CFC75F002A0
:10273000EBA42CFBEA24DAF582EB34F6F583E0F522
:10274000C2E9F87900E875F002A4C8AAF075F000B3
:10275000A42AFA75F002E9A42AF9E824DBF582E953
:1027600034F6F58374E055C5FAE04AF5C5D083D058
:10277000822274F712038E74FE55F14402F5F14380
:10278000F30CE5F390F241E0541C1313543FF9129B
:10279000271743868053C4FE43C40253C4FB53C46B
:1027A000F753C4EF53C4DF53C4BF53C5DF7508FAF2
:1027B00075090078081204D97C807DF47A737BF463
:1027C00012184A740212034D7508FA750900780848
:1027D0001204D97C7A7DF57A6A7BF412184A740265
:1027E00012034D1227F1740090F676F07F02020377
:1027F000EEC28B5386FB438640D2AFD2AA22C0E002
:1028000074EF120426C28BA9C17A737BF41218A14B
:10281000122A9B8A088B098C0A8D0B90F47C78080D
:1028200012022E7F04020485C082C08390F676E0F7
:1028300060030228EEE586A2E050030228EE90F441
:102840006EE0F8A3E0F990F470E0687003A3E0692B
:1028500070030228EE90F46EC082C08390F470E0A2
:10286000F8A3E0F9D083D082C3E098A3E099502583
:1028700090F470E0F8A3E0F974FAC398F874009942
:10288000F990F697E8F0A3E9F090F6747400F0A3DD
:102890007400F0803390F46EC082C08390F470E0D6
:1028A000F8A3E0F9D083D082E0C398F8A3E099F9C7
:1028B00090F697E8F0A3E9F090F46EE0F8A3E0F961
:1028C00090F674E8F0A3E9F0740190F676F090F6D3
:1028D000971204EA90F470E0247AFCA3E034F5FD4A
:1028E00079017A777BF61228F7740212034D7A0089
:1028F0007B00D083D0822274F512038E8908740B7A
:10290000120382E0F8A3E0F98C828D83A3E583F5BE
:1029100082E5828A828B83F08C828D83A3E5828A12
:10292000828B83A3F074DF8A828B83A3A3F074C1AC
:102930008A828B83A3A3A3F074FF2874FF39FFEF6F
:10294000541FC0E08A828B83A3A3A3A3E054E0FEBC
:10295000D0E04E8A828B83A3A3A3A3F0E824FF8A4E
:10296000828B83A3A3A3A3A3F08A828B83A3A3A3B5
:10297000A3E0541FF08A828B83A3A3A3A3A3A3E0A5
:10298000C2E7F08A828B83A3A3A3A3A3A3E0549FEF
:10299000F08A828B83A3A3A3A3A3A3E054E0440FF4
:1029A0008A828B83A3A3A3A3A3A3F08A828B83A38E
:1029B000A3A3A3A3A3A3E0543F44408A828B83A391
:1029C000A3A3A3A3A3A3F08A828B83A3A3A3A3A3FC
:1029D000A3A3E054CFF08A828B83A3A3A3A3A3A3D2
:1029E000A3E0D2E3F08A828B83A3A3A3A3A3A3A330
:1029F000E0C2E2F08A828B83A3A3A3A3A3A3A3E0F4
:102A000054FCF079F6E9F5D375D277750A01750BA8
:102A100000E508780A120324E50A45D6F5D6000039
:102A200000000000000000000000000000000000A6
:102A30000000000000000000000000000000000096
:102A40000000000000000000000000D2AFD2B8C2B9
:102A5000C08C828D83E0F5C17F040203EEC0E0C02C
:102A6000D0E8C0E0E9C0E0C082C083C2C0E5D1A226
:102A7000E1501953D1FD90F674E0F8A3E0F990F419
:102A800070E8F0A3E9F0740090F676F0D083D0827D
:102A9000D0E0F9D0E0F8D0D0D0E03274F512038E57
:102AA00090F69D780812021FAA08AB09AC0AAD0B7C
:102AB0007F040203EEC0E0C0D0E8C0E0C008C00957
:102AC000C00AC00BC082C08390F6EA780812021FC9
:102AD00090F69978081201F490F699C082C083901C
:102AE000F6EE780812021FD083D082780812019D7A
:102AF000702090F6B2780812021F90F699780812AA
:102B0000022E90F6EA780812021F90F69D780812BD
:102B100001F453D8F8E5D8C2C3D083D082D00BD00B
:102B20000AD009D008D0E0F8D0D0D0E03274C75530
:102B3000C64410F5C675CDFA75CB3ED2AFD2BB22D6
:102B400074F112038E74F81203377404120382EACC
:102B5000F0A3EBF0A3ECF0A3EDF0122A9B8A088B14
:102B6000098C0A8D0B851082851183780812022E3C
:102B7000122A9B8A088B098C0A8D0B85108285117D
:102B80008378081202077404120382780C12021F61
:102B9000780C79081201B240D7740812034D7F08EF
:102BA0000203EEE9C39430400BE9C3943A50057434
:102BB000D029F922E9C394414012D2F0E9C3945BD1
:102BC000500AD382F0500574C929F922E9C39461EF
:102BD0004012D2F0E9C3947B500AD382F0500574BE
:102BE000A929F92279002274F112038E74FE1203CE
:102BF00037851082851183EAF0A3EBF0E9FE90F6A9
:102C0000B2780C12021FEEC3940940497E08804539
:102C1000851082851183E0F8A3E0F5838882E0F9CE
:102C2000122BA3E9F508851082851183E02401F8B1
:102C3000A3E03400F9851082851183E8F0A3E9F060
:102C40007404780C1201C2E4F509F50AF50B780C4E
:102C500079081201E1EEFA74FF2AFEEA70B2AA0CBA
:102C6000AB0DAC0EAD0F740212034D7F080203EEE4
:102C7000E9C3940A5005743029F922743729F922DE
:102C800074F712038E7409120382E0FEA3E0FFEAD8
:102C9000F8EBF980188C828D83E088828983F0A319
:102CA000A882A9838C828D83A3AC82AD838E088F8A
:102CB0000974FF25081E74FF3509FFE5087002E559
:102CC0000970D27F020203EEFFFFFFFFFFFFFFFF4D
:00000001FF
