:100000000200D3FFFFFFFFFFFFFFFFFFFFFFFFFF28
:10001000FFFFFF022DAEFFFFFFFFFFFFFFFFFFFF10
:10002000FFFFFF02231AFFFFFFFFFFFFFFFFFFFF9E
:10003000FFFFFFFFFFFFFFFFFFFFFFFFFFFFFFFFD0
:10004000FFFFFF022EF4FFFFFFFFFF023113FFFF50
:10005000FFFFFFFFFFFFFFFFFFFFFFFFFFFFFFFFB0
:10006000FFFFFFFFFFFFFFFFFFFFFFFFFFFFFFFFA0
:10007000FFFFFFFFFFFFFFFFFFFFFF022F52FFFF0A
:10008000FFFFFF022BC400000080FB1200E2B9005A
:10009000030200CDE490F1FF785F79018002F0A3C4
:1000A000D8FCD9FA90F25DAA82AB839000E578BBC8
:1000B00079018015E493A3AC82AD838A828B83F0AF
:1000C000A3AA82AB838C828D83D8E9D9E7121E3D27
:1000D00012008675D0007581AF7510FF7511F102A1
:1000E000008B7901224F4B0D004552520D00454EB9
:1000F0004352595054494F4E2042555359202D20B8
:1001000054525920414741494E0D0043697365637C
:100110006F4E6F7474696E6768616D00302E333195
:100120000014000000CEFFFFFFCFC1010000F0006F
:100130000000000100614D4D525353492D2D2D2DCE
:100140002D0061535352535349532D2D2D2D0061D2
:100150004D4D525353494D000189130000E90300EE
:100160000003000000F501000080250000040000ED
:1001700000E8030000060606060606040707070750
:100180000707040000DFBE00072042010000000056
:10019000000000405DC64B0000004400807FC3FFAC
:1001A00043AE010022FF43AE02227C0F7B007F049E
:1001B0007E0075920090F000759201EB232324409D
:1001C000F585758400759201E0A3759200F0A3DEB9
:1001D000F4DFF2EB23F5AD75AC0075AE0100E5AED2
:1001E00020E7FB90F0007F027E0075AE027D02E00A
:1001F000A3F5AFDDFAE5AE20E6FBDEF1DFEF7F042D
:100200007E00759200EB2323F583758200759201C1
:10021000EB23232440F585758400759201E0A375D6
:100220009200FAE0A39A70ABDEF0DFEE0B75AE0041
:10023000DC02800302F40480FEE066701008A3E094
:1002400066700A08A3E066700408A3E06622C3E7AC
:10025000960809E7960809E7960809E79622C00874
:10026000C3E096F50808A3E096420808A3E096428A
:100270000808A3E09645087001D3D00822E9799ECA
:10028000C608CAC608CBC608CCC6C370207996CAB1
:10029000CBCC7019798ECBCC70137986CC700EF9DB
:1002A000802ACA33CACB33CBCC33CC331930E7F2F4
:1002B000CCCBCA3350147004EA30E00DE4CA3ACA19
:1002C000CB3BCBCC3CCC500209C3E913C6CC1823A2
:1002D00013C6CB18C6CA18C6F92212031A20F01486
:1002E00030E72B74FFFCFBFA747F8022E4FCFBFAFE
:1002F0007480801AB48008BC00F2BB00EF800F50FD
:10030000EBF9E4C39AFAE49BFBE49CFCE499C6CCC9
:1003100018C6CB18C6CA18C6F922E4C9C608CAC688
:1003200008CBC6D3330308CCC63392F0C3947F40C6
:100330002E94184019C9B90704CACBCC225025C342
:1003400009CA33CACB33CBCC33CC33D9F422F460D3
:100350000DC9CCC313CB13CBCA13CAD9F6CC22E434
:10036000FCFBFA2214FCFBFA22E6C33318461846BB
:10037000184622E7C3331947194719472218181896
:10038000E6084608700AE608C3337005E633F4222F
:100390000822191919E7094709700AE709C33370D8
:1003A00005E733F4220922E6084608C3134608335A
:1003B0006002E633F422E7094709C31347093360B3
:1003C00002E733F4221203A7601B1203B660161271
:1003D00003697007120373600CB322C0D012037359
:1003E0007005D0D022C32233D0D0501330E0EBC3FD
:1003F000E7960809E7960809E7960809E796222094
:10040000E0E4E6970809E6970809E6970809E69701
:1004100022001203A7604F1203B66012E7548066F1
:10042000F612037D7011120373703B090909F4F68B
:1004300018F618F618F622120392701512036908BE
:10044000080860EAE6447FF618768018E4F618F6A5
:100450002212036960161203737012E4F608F6089C
:10046000F608E65480F609090918181822EAC0E0CF
:10047000EBC0E0ECC0E0EDC0E0E687F0A4FBACF040
:1004800008E687F0A42CFCE435F0FA1809E687F0BA
:10049000A42C4B60027401CA35F0FCE433FB09E67E
:1004A00087F0D2F7A42CCB35F0FC1908E687F0A42E
:1004B0002BCC35F0FBE433FD0819E687F0D2E7A436
:1004C0002C4ACB35F0CD3400FC09E687F0D2E7A406
:1004D0002DCC35F0FDE433FA0918E687F0D2F7A405
:1004E0002CCD35F0CA3400FC08E687F0D2E7D2F70D
:1004F000A42ACC35F07A7E20E70B0ACB33CBCD3360
:10050000CDCC33CC33CB3350147004ED30E00ED26D
:10051000F1E4CD3DCDCC3CCC3B5005DA05C2F1EB4E
:10052000547FC63308E63392F0FBE73309E733C361
:100530009A502D2B70190C0D4C4D70151806E608AD
:10054000C333700D20F10AA2F013F6E418800B40BB
:1005500024E4F630F002768018F618F618F68024B7
:10056000D33B14501074FFA2F013F6187680E418F1
:10057000F618F6800FA2F013F618E63303F618EC1F
:10058000F618EDF6D0E0FDD0E0FCD0E0FBD0E0FACC
:10059000221203A7601D1203B67005191919801ADB
:1005A00012037D701F120392C37003E6673319199B
:1005B0001940071818182208080874FFF618F618CA
:1005C000F618F6221203926017120373702192F04C
:1005D0001203697019501720F01408080809090956
:1005E000E7F61819E7F61819E7F61819E7F62212D0
:1005F000036960E6E869701F0808E62480F608E4ED
:1006000036F618547FB47F0CE654806007F6E41881
:10061000F618F622181822E9C6CC08C6CD08C6CEB0
:1006200008C6CFC0E0E8C0E0EAC0E0EBC0E009E9FE
:10063000F809E7FA09E7FBE6F918E6F8C3EC98EDE4
:1006400099EE9AEBC2E7F5F0EFC2E795F0500E6035
:100650000CEBCFFBEACEFAE9CDF9E8CCF8EAA2E759
:10066000D2E7FAEB33FB13F5F0EEA2E7D2E7FEEFA9
:1006700033FFC5F013A2E730E601B313C5F0C3C0E2
:10068000E0C0F07F00C39BFB605B9418600C401AD5
:10069000D0E023F9D0E0F802076F8AF0E948600360
:1006A000D2F0E4AFF0FAF9F8803BEB30E40D89F0DA
:1006B000EA6003D2F0E4AFF0F9CAF8EB30E30D885A
:1006C000F0EF6002D2F0AFF0E4CAC9F8EB54076073
:1006D00014FBC3EA13FAE913F9E813F8EF13500215
:1006E000D2E0FFDBEDD0E0C0E030E739C3E49FFFAC
:1006F000F5F0EC98FC42F0ED99FD42F0EE9AFE42E6
:10070000F0D0E0F9D0E0F8E5F0607AE923F9EE20E6
:10071000E742D8028067C3EF33FFEC33FCED33FDD3
:10072000EE33FE80EAEC28FCED39FDEE3AFED0E037
:1007300023F9D0E0F84002801BC3EE13FEED13FD59
:10074000EC13FCEF135002D2E0FF08B800067F7FE5
:1007500074FF802EEF3350178CF020F00260100CE5
:10076000BC000C0DBD00080EBE000408E860DFE907
:1007700033E813FFEE2313FE4F4D4C8008E95480FD
:10078000FFE4FEFDFCEE33EF33F47004FCFD7E80ED
:10079000D0E0FBD0E0FAD0E0F8D0E0CFC618CEC66B
:1007A00018CDC618CCC6F9221203A7700418181861
:1007B000221203B6700D74FFF61819F61819F61800
:1007C00019F622E7548066F6120369700F1203735C
:1007D00070F014F608F608F608F680D1120373706C
:1007E0000CF608F608768008E6447F80EC12039544
:1007F000700C12038060BFE65480F6E480BB1203E5
:1008000080700519191980A5E869700C763F187673
:100810008018F618F6E8F922E6CDC0E018ECC0E042
:10082000E633CD33CDD313F6E719FCE7191933CCF2
:1008300033C3947F400ECD9D502408E65480F6E4E7
:1008400018F6800FF4043D14501408E6447FF6189F
:100850007680E418F618F6D0E0FCD0E0FD22CCD388
:1008600013CCFD18E4C6CBC0E018E4C6CAC0E0084B
:1008700008ED08C633E613F618E433C675F003C373
:10088000CA97CA09CB97CB199C40047D08802EBD1E
:10089000000302095116B6FF050606081618C3CA5A
:1008A00033CACB33CB33CA27CA09CB37CB193CC3A6
:1008B0007D08803E187D0820E75CC633C6CA33CA6F
:1008C000CB33CB33DDF1D5F0EB30E77BCA97CA09E8
:1008D000CB974ACB199C406F4B7025E620E02180D6
:1008E00066187D08C3CA97CA09CB97CB199CD3C693
:1008F00033C6CA33CACB33CB3350C9DDE7D5F0E1B9
:10090000D3E4C636C608C636C608C636C608C636D6
:10091000C61818188031C3CA97CA09CB97CB199C3F
:10092000B34097C633C6CA33CACB33CB33DD34D5D5
:10093000F02EC6A2E0C640C8CA27CA09CB37194A5A
:1009400070BECB3CB480B90808E63308E633601FBC
:10095000181818D0E0FAD0E0FBD0E0FCD0E0FD227F
:10096000187D08CA27CA09CB37CB193CD38080131E
:10097000F618E4B67F11F618B6FF0EF618C6047026
:10098000D20808768080CAF618F618F680C50808DE
:1009900008EAC0E0EBC0E086F0E7A4FA180986F0A8
:1009A000E7A42AFA180986F0E7A42AFA180986F0BB
:1009B000E7A42AFA1986F0E7A4FBE5F02AFA190859
:1009C00086F0E7A42BFBE5F03AFA190886F0E7A4D5
:1009D0002BFBE5F03AFA18180986F0E7A4C5F02BCE
:1009E000FBE43AFA1908E7C5F0C6A426F6E5F03BA1
:1009F000FBE43AFA1886F0E7A4F6E5F00826F6E4F8
:100A00003B08F6E43A08F6D0E0FBD0E0FA227009A1
:100A1000080808226016181818C6C333C608C6335B
:100A2000C608C633C608C633C6D5E0EA22E627F6AE
:100A30000809E637F60809E637F60809E637F62228
:100A4000E026F608A3E036F608A3E036F608A3E0B1
:100A500036F622E026F008A3E036F008A3E036F0F0
:100A600008A3E036F022C3E697F60809E697F608F1
:100A700009E697F60809E697F622C3E0C696F60857
:100A8000A3E0C696F608A3E0C696F608A3E0C696CD
:100A9000F622E0F608A3E0F608A3E0F608A3E0F6E5
:100AA00022E6F008A3E6F008A3E6F008A3E6F022A9
:100AB000E0FAA3E0FBA3E0FCA3E0FD22EAF0A3EB55
:100AC000F0A3ECF0A3EDF022CAC0E0E6F0A308DA50
:100AD000FAD0E0FA22CAC0E0E0A3C582CCC582C544
:100AE00083CDC583F0A3C582CCC582C583CDC58324
:100AF000DAE6D0E0CA22C3E498F8E499F9120B3799
:100B00008026C3E49AFAE49BFBE920E7E9120B375D
:100B1000E498F8E499F922C3E498F8E499F9120BFF
:100B200037E498F8E499F9C3E49AFAE49BFB22EBE2
:100B300020E7CFE920E7E0B90010BB0008E88AF021
:100B400084F8AAF022E4FBC8FA22EB70227B10C8DA
:100B500033C8C933C9335007C39AC3DBF280069A3E
:100B600050012ADBEAC833F4C8C933F4C9FA227544
:100B7000F008E4C833C8C933C933C99AC99B5004C3
:100B8000C92AC93BD5F0ECFBC833F4C8E4C9FA2242
:100B9000600D08C6A2E713C618C613C6D5E0F32237
:100BA000700422600D18C6C333C608C633C6D5E02C
:100BB000F41822251010AF08F51040021511800816
:100BC000F51040021511D2AF22C0D0251010AF0889
:100BD000F510500205118008F51050020511D2AF32
:100BE000D0D0222510F58210AF08F5104002151163
:100BF0008008F51040021511D2AF8511832225100F
:100C0000F582E43511F583222510C582C0E0E51197
:100C100034FFC583C0E0E510C3958224F910AF0806
:100C20008583118582108008858311858210D2AF5B
:100C3000CEF0A3E520F0A37808E608F0A3DEFAEFF3
:100C4000F0A3E58124FBF8E608F0A3E608F0A3088A
:100C500008E608F0A3E608F0A315811581D0E0FEB0
:100C6000D0E0F815811581E8C0E0EEC0E0228511E2
:100C700083851082E0A3FEE0A3F5207808E0A3F6C8
:100C800008DFFAE0A3FFE0A3C0E0E0A3C0E0E0A338
:100C9000C0E0E0A3C0E010AF08858210858311801A
:100CA00008858210858311D2AFD083D08222C0D034
:100CB0002510C582C0E0E51134FFC583C0E0E51012
:100CC000C3958224F310AF088583118582108008B4
:100CD000858311858210D2AFC8F0A3E9F0A3EAF0B2
:100CE000A3EBF0A37908E709F0A3D8FAECF0A3EDA1
:100CF000F0A3EEF0A3EFF0A3D0E0F0A3D0E0F0A3D8
:100D0000D0E0F0A3E520F0A3E5F0F0A32285118365
:100D1000851082E0C0E0A3E0F9A3E0FAA3E0FBA322
:100D20007808E0F608A3DFFAE0FCA3E0FDA3E0FE0C
:100D3000A3E0FFA3E0C0E0A3E0C0E0A3E0F5D0A300
:100D4000E0F520A3E0A3F5F010AF088583118582BC
:100D5000108008858311858210D2AFD082D083D0D5
:100D6000E0F8D0E0327404800474028000C0E0F443
:100D700004120BE3D0E0120AC82274028000CCC037
:100D8000E0EDC0E0E510C39CCCAD1150011D10AFEB
:100D9000068C108D1180068C108D11D2AF120AD5E1
:100DA000D0E0FDD0E0FC22D083D082E9C0E0E49323
:100DB000A3C386F0C5F095F0F908E493A386F0C5C7
:100DC000F095F0702408E493A386F0C5F095F070D8
:100DD0001908E493A386F0C5F095F0700E08E4932B
:100DE000A3C3994007E9048004A3A3A3E475F00218
:100DF000A42582F582E5F03583F583D0E0F9E4930C
:100E0000A3C0E0E493C0E0222020000000000041E5
:100E10004302000000004244040000000043430677
:100E20000000000043480119F80106434E011FF875
:100E300000FF4353011EF819FF444E080000000054
:100E40004452011CF8010545410E000000004545D3
:100E50000138F80001454B0D000000004643011A1F
:100E6000F8000149440B0CF8000049320B0EF80061
:100E7000004D590F0AF800004E540115F8000450B7
:100E800043110000000050471200000000504B01C9
:100E900011F801F0504C0116F800085245150000F9
:100EA000000052490F3FF8000052500136F800018F
:100EB000524F1600000000534D0118F80002565220
:100EC000180000000057521B000000005A5A1C0076
:100ED00000000000000000000000030D1D26578EDA
:100EE00083C7C0030D1D26578E83C7C0030E1E2760
:100EF0008F5084CBC2120E1D342C6084C8C0030EE8
:100F00001E278F5084CBC2120D1C342B5185CBC2AF
:100F1000C082C0837C5D7DF28012C082C0837C6110
:100F20007DF28008C082C0837C667DF21214FFD0FF
:100F300083D0822274F8120C08E9FE121834740F60
:100F40005E1218377F01020C6E74F7120C08EAFE6D
:100F5000EBFF8E088F0974087808120B90A908120D
:100F60000F34EEF9120F347F02020C6EC082C08380
:100F700090F1FFE4F080B8C082C083EA4B700302B6
:100F800010B4121744121F8EE990F203F01231DBF5
:100F9000E9547F90F202F0640A70030210B4E06436
:100FA0000D702690F1FFE06402600AE064056005C0
:100FB000E064067014121518740A28F582740E1273
:100FC0001532F91210B70210AF90F1FFE06019145A
:100FD000602914604814606624FE700302108814AF
:100FE00070030210760210A490F202E064416003E4
:100FF0000210A490F1FF74010210B390F202E064B9
:101000005460030210A490F1FF7402F090F200E427
:10101000F090F2010210B390F200E004F01215110A
:10102000F582740E121532F8607A90F202E0687060
:10103000E690F1FF7403807B90F200E004F012155B
:1010400011F8740E39F988828983A3E493FA90F237
:1010500002E06A601A88828983E493FAA3A3A3A3B7
:10106000A3A3A3E4936A60D090F1FF74048044903A
:10107000F1FF7406803D90F202E0642090F1FF7071
:10108000047405802E7405F090F201E0C3942050A2
:101090001390F203E0C0E012175CD0E0F090F20190
:1010A000E004800F90F202E0640D70BC120F1A9001
:1010B000F1FFE4F0020F2F74F1120C08E9FE90F238
:1010C00001E0F97A497BF81232148A088B098C0AFC
:1010D0008D0B121511FC740E39FDEC2403FAED345E
:1010E00000FBEE606814700302121D14606724FE9A
:1010F00070030211A224FE70030211FA24FE700391
:101100000212AC24FD70030212BD24FE7003021310
:101110009E1470030212FA14700302140524FE7068
:101120000302146B14700302148024FD7003021474
:101130008B14700302149124FE70030214B724FD73
:1011400070030214C11470030214D08003120F1034
:101150007F08020C6E1214E8120AB012317C90F86B
:1011600038E090F837F090F239600474018001E4BF
:10117000F090F820120AB0122CE290F819E0F5086D
:10118000E4F509F50AF50B7808120D6590F81CE0F6
:10119000FAE4FBFCFD1224727404120BC9122880BD
:1011A00080AE90F201E0701390F822E012183590B2
:1011B000F820121747120F4902133F85080C8509C2
:1011C0000D850A0E850B0F90F29D780C120A409047
:1011D000F2A1780C12025E50030214CA791CAA080C
:1011E000AB09AC0AAD0B1233A0E970030214CA902C
:1011F000F8207808120AA102114D90F201E0700B5C
:1012000090F824E0F912183B02133F6401600302D6
:1012100014CA90F849E090F824F002114D90F201C0
:10122000E070238A828B83E493C0E0740193F5839A
:10123000D082E0FF74F05F6004EF121834740F5F27
:10124000F912329780BF8C828D83A3A3A3A3A3E45A
:1012500093F50CE4F50DF50EF50F780C79081202F4
:101260004E50030214CA8C828D83A3A3A3A3A3A30D
:10127000E493F50C7808790C12024E50030214CA5C
:101280008A828B83E493F8740193F988828983E5D9
:1012900008F0E582B41104E58364F8600302114D9F
:1012A00090F811E0240F54F0A30212191214E8125E
:1012B0000AB012317C90F20AE4F002115090F2016F
:1012C000E070128A828B83E493C0E0740193F5830B
:1012D000D0820211B290F2A5780812025E50030289
:1012E00014CA8A828B83E493C0E0740193F583D09F
:1012F00082E508F0A3E50902121990F201E0704DB1
:1013000090F216E070417A837BF21221EA7C107A27
:10131000257BF87900122234E0640270FB7A257B89
:10132000F81221EAE4F0FF8F0874172508F582749B
:10133000F43400F58312150B0FEFC3941040E879D5
:101340000D12183B02114D120F24021150C39411BB
:1013500040030214CA90F216E070EC7A837BF2121A
:1013600021EA90F201E0FC7A497BF87901122234FB
:1013700090F216E0640270F8E4F0750810F5097850
:1013800008120D697C177DF47A257BF81234C2743B
:1013900002120BC97A257BF81221EA02114D90F254
:1013A00001E070157F008F0874252508F58274F818
:1013B0001214F29410508880ED642060030214CA65
:1013C00090F216E070817F008F0874492508F5823D
:1013D00074F83400F583E0F9121723A3E0F912172B
:1013E0002AE508C454F028C0E0EFC313F874252898
:1013F000F58274F83400F583D0E0F00F0FEFC3945A
:101400002040C5808F90F201E070228A828B83E4B5
:1014100093C0E0740193F583D08212150B1215244A
:10142000C0E0740193F583D082A3021203640260CA
:10143000030214CA90F849E0F91231DBE9C0E01266
:101440001524C0E0740193F583D082D0E0F090F8C9
:101450004AE0F91231DBE9C0E0121524C0E0740162
:1014600093F583D082A3D0E002121990F81DE060BA
:10147000591214E8120AB012317C12242A021150B7
:10148000120F1090F20A74050212B91220F702111D
:101490004D90F201E0700690F8130211B2E5084594
:1014A00009450A450B602390F2A9780812025E40B4
:1014B0001990F8130212F17C947DF21214FF0213BA
:1014C0003F12209CE9600302114D120F1A021150C5
:1014D0007F008F0874092508F58274F81214F294BD
:1014E00040400302133F80EA120F10122DD590F2F4
:1014F00099223400F583E0F9120F340FEFC32290E4
:10150000F889E0FAA3E0FB121F7122E0F912183FFC
:10151000221215187408282290F200E075F007A432
:10152000F8A9F022121518740B28F582740E121502
:10153000322239F583E4932274F7120C08EA4B70D7
:1015400003021720121744121FF0E990F20212173B
:101550003FE060511470030215FE1470030216126E
:1015600014700302161F1470030216321470030263
:10157000164A147003021664147003021680147065
:101580000302169C1470030216AA1470030216CEEE
:101590001470030216DF14700302170014700302A4
:1015A000170E02172090F202E064576005E06456BF
:1015B000700E90F1FF7401F090F202E090F209F0E9
:1015C00012183B90F202E06457702B90F81DE4F083
:1015D00012209C90F204E4F0A37440F090F2041204
:1015E00017471223E290F204E02400F0A3E0340451
:1015F000F0C3947C40E6795212183B02172090F217
:1016000002E0643A600302172090F1FF7402F002D6
:10161000172012173790F20012173F740380EF1251
:10162000172A90F200E048F090F20612173F740477
:1016300080DC121730740C7808120BA090F204F0C2
:10164000A3E50912173F740580C41231EA90F20530
:10165000E04912173F7406F090F205E0F890F206A8
:10166000E02880AA12173074047808120BA090F2B8
:1016700004E04508F0A3E0450912173F7407808E87
:1016800012172390F204E0450812173F7408F090F7
:10169000F204E0F890F206E02802160E12173790D6
:1016A000F20812173F740902160E12172A90F20858
:1016B00012174D90F200E0600D90F1FF740AF09067
:1016C000F201E402160E90F1FF740C02160E1217CE
:1016D00037C0E012175CD0E012173F740B80BA12CB
:1016E00031EAE9FA90F2011218534A12175390F2B4
:1016F00001E00412182750CE90F1FF740A02160E72
:1017000012173790F20712173F740D02160E1217B8
:101710002A90F20712174D90F1FF7401F012177121
:10172000020F671231EAE9F508221231EAE9F822DC
:10173000121723750900221231EAE9C454F022F08D
:1017400090F1FF2290F88BE0FAA3E0FB22E0481230
:10175000175322F0F890F206E028F02290F20112DE
:10176000176322E0F8744928F58274F83400F58391
:101770002274F7120C0890F206E06004794E80445F
:10178000794112183B90F208E0707AC390F205E0BC
:10179000943C502E90F209E06457702E90F200E0D5
:1017A000F5087509007808120D6990F204E024002C
:1017B000FCA3E03440FD7A497BF812235B740212EB
:1017C0000BC9795212183B020F6790F201E48005B1
:1017D00090F201E00412182750E8121853FA7583AA
:1017E000F2758204E028F8A3E03400F9E428F582D9
:1017F00074401215326A60D8794E12183B796E1215
:10180000184BF080C2640170B9795212183B797993
:1018100012184BF090F20AF090F209E0645770A7AA
:1018200090F81D740180DBF090F200E0F890F20176
:10183000E0C39822C4540FF912329712183F229035
:10184000F889E0FAA3E0FB121F282212183F90F15A
:10185000FFE422121763E022C082C08390F88974EB
:101860007FF0A374F8F090F88B7479F0A374F8F01B
:1018700090F80CE0F8A3E0F990F245E8F0A3E9F065
:10188000D083D0822274F1120C0890F88B121D487C
:10189000121FF6E990F20FF090F20A7052E0701306
:1018A000C2AF90F885120AB090F20B120ABCD2AF08
:1018B000021A3064017018121B84120A7A90F2D155
:1018C000780812025E500890F20AE4F0021A309092
:1018D000F20AE064056003021A27121B84120A7AD6
:1018E00090F2D5780812025E4003021A2780D8E0F1
:1018F0007034121B84120A7A90F2D5780812025EB4
:101900005024121BDBF8121BCFE028FAA3E03400AE
:101910008A82F583E0F890F824E068700990F20A72
:101920007402F0021A1E90F20AE07003021A306488
:1019300005701DC2AF90F885120AB090F20B120A22
:10194000BCD2AF90F20FE0FA7B00121538021A27D2
:10195000E06401701DC2AF90F885120AB090F20BDE
:10196000120ABCD2AF90F20FE0FA7B00120F77029E
:101970001A27E064046073121B84120A7A90F2D56D
:10198000780812025E50030218C790F20AE064025F
:10199000702790F20FE0C394025003021B7F121BCA
:1019A000DB2401121BC0120B2F121BE16003021873
:1019B000C790F20A7403021B7EE06403702790F262
:1019C0000FE0C394035003021B7F121BDB2402129F
:1019D0001BC0120B2F121BE160030218C790F20A02
:1019E0007404021922E06404703D90F20FE0C39485
:1019F0000440030218C7121B84120A7A90F2D578A9
:101A00000812025E502190F20A7401F0120F6C90DD
:101A1000F88B121BA7121BA7121B9C120F1012315E
:101A20000090F20B120ABC90F20AE06003021B7FE6
:101A300090F815E0704390F20FE07003021B7F9066
:101A4000F24CE064107003021B7F90F23AE06003F6
:101A5000021B7F90F216E06003021B7F90F811E0FA
:101A6000F890F20FE0C3985003021AFF90F239E0A9
:101A70002403F5088056121B99121BF670F890F299
:101A80000FE4F090F815E064036003021B7F121B63
:101A90008D90F23B7808120A7A90F2D578081202FB
:101AA0005E4003021B7F7CAD7DF290F239E0F812BC
:101AB0001D4E121BAE740C021B78121B9974172E4C
:101AC000F58274F63400F583E9F0050890F811E02A
:101AD000FC90F239E0F8850882AE828C0A250AFA79
:101AE000E43400FBEA24030A0A0AEB3400FBEE9A12
:101AF000E49BA2D265D03340C1121BB4EC8079C202
:101B0000AF1231008A0C8B0D8C0E8D0F90F88578FA
:101B10000C120A7AD2AF90F2A9780C12025E405FE2
:101B200090F813E0F508A3E0F509E4F50AF50B7861
:101B30000C790812024E50477508008025121B9937
:101B4000E9C0E085080A90F239E0F8E50A28F8E4EF
:101B50003400F9741A28F58274F639F583D0E0F070
:101B60000508121BF6600990F811E0C3950850CDE6
:101B700090F239121BAEE508F090F23A7401F07F52
:101B800008020C6E121B8D90F20B780822123100A5
:101B90008A088B098C0A8D0B2290F88B121BA022CD
:101BA000121D48121F8E22121BA090F88B22E0F803
:101BB000121BB422741728F58274F63400F58322C0
:101BC000F8E43400F9121BCFA3A3E0FA7B002290C3
:101BD000F88BE0FAA3E0F5838A8222121C0DA3E0C1
:101BE00022121C14E02AF8A3E03B8882F583E0F877
:101BF00090F824E06822121C0DE0F890F88BE0F9D0
:101C0000A3E0F5838982A3A3A3A3E06822121C1496
:101C1000A3A3A32290F88BE0F8A3E0F583888222A7
:101C200074F7120C0890F239E0F890F242E0606329
:101C3000741028F874F73400F988828983A3A3A369
:101C4000E0FA90F80AE06A6003021D408882898306
:101C5000A3A3A3A3E0F890F80BE0686003021D4083
:101C600090F243E07004A3E064F06003021D40437F
:101C7000FE10C29443FF02C2A1D28090F2D9120A90
:101C8000B012317CC280D2A153FFFDD29453FEEF3B
:101C9000021D4090F815E0640470367CBA7DF212A3
:101CA0001D4E121D5B74232AFA74F63400FB1232A7
:101CB000A8E9FA121DE2E8240BF582E93400F58365
:101CC000EAF088828983740CF090F23A7401F08013
:101CD0006F90F20AE064016067E0640560627E0074
:101CE00080058E08121D6B90F239E0F8741028F50B
:101CF0008274F73400F583E0FAEEC39A40E490F87A
:101D000015E06403703A7CC77DF2121D45121F7105
:101D1000121D5B74142AFA74F73400FB1232A8E027
:101D2000F8741328F58274F73400F583E9F07E0027
:101D30008E0890F239E0F8121D6BEEC3940440F067
:101D40007F02020C6E90F889E0FAA3E0FB22741A7D
:101D500028FA74F63400FB12350822790390F23F1A
:101D6000E0FCA3E0FD90F239E0FA22E50828F8E46F
:101D70003400F9741328F58274F739F583E0F91209
:101D80001D45121F280E22C082C08390F2D0E0A20F
:101D9000E020A001B3403FA2A0E433F090F836E089
:101DA0006034A2A0403090F216E0702A90F239120E
:101DB0001DE290F83F121DD9F090F840121DD9A3F2
:101DC000F090F245E4F0A374F0F088828983740205
:101DD000F090F23A14F0021880E088828983A3A37D
:101DE000A322E0F8741728F874F63400F92274F589
:101DF000120C081231008A088B098C0A8D0B90F2A4
:101E0000117808120A7A90F2DD780812025E500CFE
:101E100063908012310090F211120ABC90F24CE0F3
:101E200064106002C2871228AD12298B1218851225
:101E30002DD5123066121D877F04020C6E53BEFB37
:101E4000E5BEA2E650FA53C6B8E5C6A2E640FA439C
:101E5000BE0475B90643A90512315853F5F943FF7D
:101E60000853F76FC2A390F210E4F0A2A44008D286
:101E7000A3A2A4500204F075FF00E0A2E0500512F6
:101E800020F78006122027E960F57A257BF81221D9
:101E9000EA1218587901122D1290F819E0F508E4A9
:101EA000F509F50AF50B7808120D6590F81CE0FAB3
:101EB000E4FBFCFD1224727404120BC91228805337
:101EC000F47FC29743FE8053F37FC28743FD8012A5
:101ED00030EF53F3DE43FD21D285C28012310090F2
:101EE000F211120ABC121DEE80FB74F8120C087479
:101EF00008120BFEE0F88A828B83ECF0A3EDF08AE7
:101F0000828B83E04D6010E8121F1CE4F08A828B04
:101F100083A3121F1CA3F07F01020C6EA3A3F08AFF
:101F2000828B83A3A3A3A32274F6120C08890AEA66
:101F30002403121FC62401FEE43400FF8A828B832F
:101F4000A3A3A3A3E06E7001EF8A828B83700BA31F
:101F5000A3A3A3A37401F0F98012121FD2E50A1201
:101F60001FDE700688828983E4F079007F03020C0B
:101F70006E74F8120C08EAFEEBFF8C828D838008E9
:101F8000EEFAEFFB121F28A3E0F970F4808974F8D1
:101F9000120C08EA2404121FC68A828B83A3A3A30F
:101FA000E06C70047900801B8A828B83121FD2E060
:101FB00090F215121FDE700688828983E4F090F299
:101FC00015E0F9021F17F8EB3400F988828983E0E5
:101FD000FC22E02CFEA3E034008E82F58322F08800
:101FE000828983E004F0FC8A828B83A3A3E06C22C5
:101FF000121F8E0231DBC082C0838A828B83A3A32F
:10200000A3E0F88A828B83A3A3A3A3E0F9E8C39992
:102010004005E8C399800A8A828B83A3A3E0C39911
:1020200028F9D083D0822274F7120C087A007B0042
:10203000EA2400F582EB347CF583E0F46011EA24B5
:1020400040FAEB3400FBC3EA94C1EB940340E1EAAD
:102050004B700479008040750840750900780812BB
:102060000D69EA24C0FCEB347BFD7A097BF812345D
:10207000C27402120BC990F809E0640770D590F899
:1020800038E0F890F837F07401687004740180014A
:10209000E490F239F079017F02020C6E74F7120CB1
:1020A0000878007900E82400FCE9347CFD8C828DFE
:1020B00083E0F4700D7508407509007808120D6909
:1020C0008027E82440F8E93400F9C3E894C1E99492
:1020D0000340D27A007B7C1223E275084075090028
:1020E0007808120D697C007D7C7A097BF812235BED
:1020F0007402120BC980A0C082C08390F8097407D3
:10210000F090F815E4F090F2E1120AB090F8201285
:102110000ABC90F81AE4F090F80A742DF0A3F0903D
:10212000F835E4F0F8F9E82430C0E0743928F58295
:1021300074F839F583D0E0F0E81221E09406E994D0
:1021400000A2D265D03340DE90F80C74A5F0A374E1
:102150005AF090F24574A5F0A3745AF090F80E74FA
:10216000A5F0A3745AF090F8197405F090F81C7457
:1021700001F090F81E74C8F0A3E4F090F811740C0C
:10218000F0A37410F0A37464F0A3E4F090F8247446
:102190002BF090F8167408F090F81DE4F090F81801
:1021A000F090F837F0A3F090F836F090F83FF0A3F5
:1021B000F0F8F9742528F58274F839F583E8F012FF
:1021C00021E09410E99400A2D265D03340E590F864
:1021D00010E4F090F817F090F81BF0D083D0822232
:1021E000240108E93400F9C3E82274F7120C08C28C
:1021F000AC90F2187403F075B30578008808EA25EE
:1022000008F582EB12230D40F3E5B3A2E350FA7810
:10221000007478C398C0E0880874692508F5827452
:10222000F83400F583D0E0F008E8C3941040E27F72
:1022300002020C6E74F6120C08E9FF8C0A740F256A
:102240000A54F0FEEF602AEC6E6026ECC39E50212B
:10225000EEC3950AF879008C08EA2508F582EB347C
:1022600000F583E4F0A3E824FF18E934FFF948708F
:10227000F2EEC490F217F090F2167401F074F2F5D9
:10228000D375D21990F22B74DFF0A374B1F0A3E4EC
:10229000F090F22F741DF0A37441F0A374DFF0A34B
:1022A00074B2F090F235E4F090F237741EF0A3743B
:1022B00011F0EE90F22EF090F236F0EB90F229F061
:1022C000EAA3F074F490F233F0A37417F0C2AC7583
:1022D000B3077800880874692508F58274F812231A
:1022E0000D40F1E5B3A2E350FAEF90F218F079183F
:1022F00012336AC298C299D2ACD2AFE0600575B30E
:1023000001800375B303EEF97F03020C6E3400F510
:1023100083E0F5B108E8C3941022C0E0C0D0C082C9
:10232000C083C298C29990F218E064037004C2ACF2
:102330008020E090F2176012E014F0600575B301A0
:10234000801090F2167402F080E4E014F060F375EF
:10235000B303D083D082D0D0D0E03274F7120C080F
:102360007409120BFEE0FEA3E0FFEB90F221F0EA0D
:10237000A3F0A374DFF0A374AFF0EF541FA3F0EE4B
:10238000A3F0A37412F0A37442F074F2F5D375D2E3
:1023900019E5AEA2E740FA75AB228C088D097409E5
:1023A0007808120B90E508F5AD8C088D097401785A
:1023B00008120B90E508F5AC790412336A1201A6F5
:1023C0001223CDE960FA79017F02020C6EE5D1A2F9
:1023D000E24003790022E5AE54C070F753D1FB7997
:1023E000012274F7120C08C3EB9440500B90F810C4
:1023F000E004F012209C8030E5AEA2E740FA75AB15
:10240000228A088B0974097808120B90E508F5AD4B
:102410008A088B0974017808120B90E508F5AC1254
:1024200001A0E5AEA2E740FA809EC082C08378AAF0
:1024300079017A007BF4C2AF75D69F801C888289AF
:1024400083E08A828B83F088828983A3A882A98310
:102450008A828B83A3AA82AB83C3E89439E994026E
:1024600040DB75AB2275C70179001231CB12F40045
:1024700080FE74F1120C0874FC120BB38510828577
:102480001183EAF0A3EBF0A3ECF0A3EDF0741312C8
:102490000BFE780C120A9275E10490DF36E06401BD
:1024A00060030225CD850C08850D09850E0A850F70
:1024B0000B7808120DA70200000004C724E224FDD7
:1024C0002414252F25462590F816E0F874DA28F50F
:1024D00082740E12276F7423F0A37431F0A3743B3F
:1024E000807D90F816E0F874E328F582740E1227C8
:1024F0006F7422F0A374BBF0A37413806290F8167B
:10250000E0F874EC28F582740E1227817462F0A34F
:102510007476804B90F816E0F874F528F582740E06
:1025200012276F7410F0A374ACF0A3744E80309037
:10253000F816E0F874FE28F582740E12278174658F
:10254000F0A3746A801990F816E0F8740728F582F1
:10255000740F12276F740CF0A3741DF0A37489F02C
:102560008510828511837808120A927808120DA7C7
:10257000010000000418278125D52618273A26884F
:102580002690F2E5780C1202397004740C80027403
:10259000121227A3742DF0A3743B12280812278966
:1025A0001202397004740A8002742A1227E9120D8B
:1025B000A70100000005CD26C425C425C425CD26CD
:1025C000C425102790F88D744DF0A3E4F090F81E08
:1025D000E0F508E4F509F50AF50B90F2E9780C123C
:1025E0000A927808790C12098EAA08AB09AC0AADD8
:1025F0000B7412F91233A090F25BE0540344209064
:10260000DF0FF090F25CE090DF10F090F81FE090A8
:10261000DF06F090DF137430F090DF037404F0A352
:102620007445F0A3E4F090F837E090F239C082707E
:102630000302275390F81202275690F2E5780C1205
:1026400002397004740C800274121227A3745BF0B8
:10265000A374F812279674551228111227891202B2
:10266000397004740A8002742A1227E9120DA70136
:102670000000000410278026802680261027802650
:1026800090F88D744B0225C990F2E5780C1202394E
:102690007004740C800274121227A3742AF0A374BD
:1026A000F812280874E912278B1202397004740A90
:1026B0008002742A1227E9120DA70100000005808C
:1026C00026CD26CD26CD268026CD26102790F88D26
:1026D00074490225C990DF0774061227A974CA122B
:1026E000279274341227D774431227B1120239701B
:1026F00004740A8002742A1227C6120DA701000072
:102700000005802610271027102780261027102765
:1027100090F88D744A0225C990DF0774061227A924
:1027200074F512279274151227D774031227B11269
:1027300002397004740A8002742A1227C6120DA787
:1027400001000000058026CD26CD26CD268026CD91
:1027500026102790F811E07583F2D082F8E0282443
:102760000290DF02F07404120BC97F08020C6E1293
:102770002773223400F583E49390DF2EF090DF0975
:10278000221227737421F0A32274EAF090F2E57804
:102790000C22F0A3748312279A22F0A37413F090F2
:1027A000DF112290DF07F07412F0A3E4F090DF0C49
:1027B00022F0A37440F0A37491F090DF1C74E9F050
:1027C00090F2E5780C221227FA7481F0A37435F0A8
:1027D000A37409F0780C22F090DF1A745612282F97
:1027E0007416F0A3746CF0A3221227FA7488F0A375
:1027F0007431F0A37409F0780C2290DF1DF090DFA3
:102800001F741FF090DF232212279A74621228117E
:1028100022F090DF1A74B612282F741DF0A314F062
:10282000A374C7F0A3E4F0A374B0F090DF1C22F00F
:10283000A37410F090DF147418F0A32274F8120C33
:1028400008EAFEEBFF90F24C7410F0D28775E104B9
:1028500075D6811228A090F239E0F8741728F87420
:10286000F63400F9EF88828983A3F0EE88828983A9
:10287000A3A3F0790112336A75E1037F01020C6EA4
:10288000C082C08375E10475D68190F24C7420F04B
:102890001228A0790112336A75E102D083D0822216
:1028A000F9122BEE439A01759110D2AF2274F712F0
:1028B0000C0890F239E0F8741028F50874F7340029
:1028C000F509E5082403FEE5093400FF90F24BE02A
:1028D0006071122A82E9605C90F815E06402702150
:1028E00090F710122982120D697C107DF77A177B00
:1028F000F61234C27402120BC990F23A7401F080DD
:102900003390F837E0601990F216E070278508825E
:10291000850983E0FCEEFAEFFB7900122234801483
:1029200090F239E0F8850882850983E0C39824FE97
:10293000F0121C2090F24BE4F0790112336A75E139
:1029400002803A90F837E0603490F24CE064106016
:102950002C90F216E06402702485088285098312A7
:102960002982120D697C177DF4EEFAEFFB1234C256
:102970007402120BC990F216E4F0121C207F0202BE
:102980000C6EE0F50875090078082274F7120C083F
:1029900090F24AE06005E4F012288090F239E0FC01
:1029A00074172CF874F63400F9E82403FAE93400BB
:1029B000FB90F23AE0607990F24CE064106071882C
:1029C000828983E0FC90F815E06402701390F24174
:1029D000E0600890F80C122A79804590F80E80F695
:1029E00090F837E0601990F24C7410F079011222DF
:1029F00034E9F890F239E028240290F6178020900C
:102A0000F239E02C240290F617F090F245122A7960
:102A100090F80CE0F8A3E0F990F245E8F0A3E9F0B3
:102A200012310090F23B120ABC90F23AE4F0804678
:102A300090F837E0604090F24CE06410703890F20B
:102A400016E06402703090F617E0C39CF895E0F948
:102A5000E824FEF508E934FFF5097808120D697CD1
:102A6000177DF41234C27402120BC990F216E4F00E
:102A700090F80C122A7902297DE0FAA3E0FB1228D3
:102A80003C2274F8120C0890F710E0FE74112EF539
:102A90008274F73400F583E0F9122AE390F23FEAFA
:102AA000F0A3EBF090F239E02403F8E43400F9EEFF
:102AB00098E499C365D0334025122B2EE9601F900E
:102AC000F710E090F249F0F8741228F58274F734A8
:102AD00000F583E0A2E75006E4F079018002790076
:102AE00002287B74F7120C08E990F247F0A3E4F097
:102AF00090F247E0C39480E05012C313FA90F88D2F
:102B0000E0F8A3E0F9EAC398FAE4801DF879FF7AC7
:102B1000027B00120B2F8808890990F88DE0F8A33A
:102B2000E0F9E508C398FAE50999FB02297D74F7F5
:102B3000120C0890F241E4F090F242F090F239E089
:102B4000F8741028F874F73400F988828983A3AAEE
:102B500082AB83E0FEE824020808E93400F990F82B
:102B60000CE0F508A3E06E700988828983E06508AF
:102B7000602290F815E06402702A90F80EE0F508E3
:102B8000A3E06E701F88828983E06508701690F25A
:102B9000417401F08A828B83E4F088828983F07922
:102BA0000102297D74F05E64F0701590F2427401A8
:102BB000F0EEFD88828983E090F243F0A3ED80D3AC
:102BC000790080DDC0E0C0D0C082C08353E9EF53FC
:102BD0009BFC90F24CE06420700590F24B800390D7
:102BE000F24A7401F0D083D082D0D0D0E032C082DB
:102BF000C08390F254E054F0F090F2537413F074E8
:102C00001069704B74F690F24DF0A37417F0A37432
:102C1000DFF0A374D9F0A3E0541F4420122CAA6063
:102C20000D90F812122CC7C08290F812800B90F809
:102C300011122CC7C08290F811E07583F2D082F88F
:102C4000E028240390F252F090F2547440804E74C5
:102C50002069704A90F24D74DFF0A374D9F074F7D4
:102C6000A3F0A37410F0A3E0541F4480122CAA60B8
:102C70000D90F812122CB5C08290F812800B90F8CB
:102C800011122CB5C08290F811E07583F2D082F851
:102C9000E028240590F252F090F2547410F074F28F
:102CA000F5D575D44DD083D08222F090F239E0FA78
:102CB00090F837E022122CD92405EB3400448090A0
:102CC000F251F090F23922122CD92403EB34004453
:102CD0002090F251F090F23922E02AFAE43400FB1D
:102CE000EA2274F5120C08791C1233A0E9700C90DA
:102CF000F25C7453F090F25B7408F090F25CE0F5D3
:102D0000C290F25BE5C554E0F8E048F5C57F0402E7
:102D10000C6E74F7120C08E9FEE5F154FE4402F55E
:102D2000F143F30C90F81AE0600543F3108003536D
:102D3000F3EF90F820120AB0122CE243868053C4BD
:102D4000FE43C40253C4FB53C4F753C4EF53C4DF60
:102D500090F81AE0600543C440800353C4BF53C5D4
:102D6000DFEE60307508007509017808120D697C86
:102D7000177DF37A797BF8121EEA7402120BC97878
:102D800008120D697C177DF57A7F7BF8121EEA74B4
:102D900002120BC9122DA190F891E4F07F02020CEF
:102DA0006EC28B5386FB438640D2AFD2AA22C0E0CC
:102DB00074F2120CAEC28BE5C1F9E586541870109E
:102DC0007A797BF8121F2812310090F885120ABC1C
:102DD0007F01020D0D74F7120C0890F891E07074E9
:102DE000E586A2E0406E90F883E0FA90F882E0FB7E
:102DF000EA6B60608A82A882EBC39A5019E4C39898
:102E0000F874019400F990F255E8F0A3E9F090F815
:102E10008FE4F0A38016EBC398F895E0F990F25593
:102E2000E8F0A3E9F0EB90F88FF0A3E4F090F891CC
:102E300004F090F255120D7A90F883E0F874172898
:102E4000FC74F53400FD79017A197BF2122E5B7463
:102E500002120BC97A007B00022D9C74F7120C0839
:102E6000ECFEEDFF7409120BFEE0FCA3E0FD8E8288
:102E70008F83A3A882E5838A828B83F0E8A3F08AFC
:102E8000828B83A3A374DF122EEB74C1F0EA2404B7
:102E9000F8EB3400F9EC24FFED34FF541FF50888FB
:102EA000828983E054E04508F0EC148A828B83A386
:102EB000A3A3A3A3F088828983E0541F122EE47495
:102EC0000F122EE4A37448F074F2F5D375D2197979
:102ED0000212336AD2AFD2B8C2C08E828F83E0F5BD
:102EE000C1022D9C122EEBA3A3A322F08A828B8316
:102EF000A3A3A322C0E0C0D0E8C0E0E9C0E0C08244
:102F0000C083C2C0E5D1A2E1501053D1FD90F88F2B
:102F1000E090F883F090F891E4F0D083D082D0E094
:102F2000F9D0E0F8D0D0D0E032C082C083538AEF2D
:102F3000C2EB438D1090F818E064027005438C02D8
:102F40008003538CFD439A10D2AF1230F3D083D05C
:102F50008222538AEFC2EB53BEFC3274F7120C0884
:102F600074FD120BB3E9FEE5D5C0E07401120BFE4F
:102F7000D0E012305B75A80075B800759A0075F343
:102F80000075F40075F50075FD2175FE0075FF00F4
:102F9000758F0075F60075F70043FE8043FD80C213
:102FA00097C287C285D280122F2953BEFBE5BEA2ED
:102FB000E550FAE5C654F84441F5C6E5C6A2E65028
:102FC000FA43BE04E5D5C0E07401120BFED0E01256
:102FD000305B43D68174066E700B74F290F2FBF096
:102FE000A374ED800974F290F2FBF0A374F4F07412
:102FF000F2F5D575D4FB75D601E5A5C0E0740212D3
:103000000BFED0E0F07402120BFEE0F83395E0F90D
:10301000E5A5687001E960ED43C7028EBE000000BF
:10302000E5BE5403600875D701004387010053C70C
:10303000FD7401120BFEE0F5D5851082851183E049
:10304000F5D475D60153C6BFE5BEA2E650FA43BE1D
:10305000047403120BC97F02020C6EF0E5D48510D4
:1030600082851183F02274F5120C0890F818E0F8AC
:10307000607890F24CE06410607090F20AE0706A40
:103080007402687006A294400B805F74016870043B
:10309000A29440567907122F5B53BEFBE5BEA2E611
:1030A00050FA53C6B8E5C6A2E640FA43BE04123150
:1030B000587A257BF81221EA7900122D1290F8191E
:1030C000E0F508E4F509F50AF50B7808120D6590AE
:1030D000F81CE0FAE4FBFCFD1224727404120BC924
:1030E0001228801230EFD285C2807F04020C6E124B
:1030F00030F32253F4EF53FEEF53F6EF53F7BF22B2
:10310000C082C083C2AFD2AF90F257120AB0D08350
:10311000D08222C0E0C0D0E8C0E0C008C009C00A28
:10312000C00BC082C083E5E4A2E45018E5E4540F6C
:1031300044E0F5E490F3037808120A9290F257788D
:1031400008120A53D083D082D00BD00AD009D008FD
:10315000D0E0F8D0D0D0E03253C6C753E4EF53E606
:10316000BFD2DE53E5BF53E7BF75DB0C75DAB2E5BE
:10317000E454F04406F5E4D2AFD2B92274F1120C53
:103180000874FC120BB3851082851183EAF0A3EB5F
:10319000F0A3ECF0A3EDF01231008A088B098C0A41
:1031A0008D0B1231008A0C8B0D8C0E8D0F780C79E3
:1031B00008120A66851082851183780C12025E500F
:1031C000E17404120BC97F08020C6EE5C954FC4976
:1031D000F5C9E5C954FB4408F5C922E9F8749F28EC
:1031E000C3941A500474DF58F92274D029C3940A86
:1031F000500574D029F92274BF29C3941A5005745C
:10320000C929F922749F29C3941A500574A929F970
:103210002279002274F1120C0874FE120BB385108F
:1032200082851183EAF0A3EBF0E9FE90F307780CB6
:10323000120A92EEC3940940487E088044851082A9
:10324000851183E0F8A3E0F5838882E0F91231EA82
:10325000E9F508851082851183E02401F8A3E034A4
:1032600000F9851082851183E8F0A3E9F0740478F1
:103270000C120A0EF509F50AF50B780C7908120AFA
:103280002DEEF874FF281E0470B3AA0CAB0DAC0E23
:10329000AD0F7402023362E9F8C3940A500574302A
:1032A00028F922743728F92274F1120C088A0EE9E1
:1032B000FE8E08EA2508F508EB3400F509EE6018E3
:1032C000F879007A30850E828B83EAF0A3E824FF38
:1032D00018E934FFF94870F2850E0C8B0DC3ED949C
:1032E00000A2D265D033402A12334D120B2FEA24AC
:1032F0003012333D120B2F880A890BAC0AAD0BEC50
:103300004D600BC3E50C9508E50D950940DA792B66
:10331000802912334D120B2F7430C39A12333D1291
:103320000B2F880A890BAC0AAD0BEC4D600BC3E583
:103330000C9508E50D950940D9792D8028850882DE
:10334000850983F0ECF8EDF97A0A7B0022E5082480
:10335000FFF508E50934FFF509ECF8EDF97A0A7B89
:103360000022120BC97F08020C6E748049F5D6E961
:1033700042D6000000000000000000000000000035
:10338000000000000000000000000000000000003D
:10339000000000000000000000000000000000220B
:1033A00074F1120C0874F8120BB37404120BFEEAD9
:1033B000F0A3EBF0A3ECF0A3EDF0E9FA90F25BE4FC
:1033C000F0E0F8EAC398F895E0F9C3E89410E994BE
:1033D00000A2D265D0334029750801750900E0F8D4
:1033E00074F02AC3987808120BA07402120BFEE541
:1033F00008F0A3E509F0851082851183E4F0A3802D
:10340000277402120BFEE4F0A3F0750801F5099091
:10341000F25BE0F8EAC3987808120BA08510828569
:103420001183E508F0A3E509F08510828511837802
:1034300008120A92780812027D7404120BFE780CAE
:10344000120A92780C12027D7808790C12041190FD
:10345000F30B780C120A927808790C1207A890F3F3
:103460000F780C120A927808790C1203C5400E905E
:10347000F25BE004F0C3941250030233C190F25B9C
:10348000E0C39412503590F313780C120A92780826
:10349000790C12059190F307780C120A927808794A
:1034A0000C1203C5500690F25CE4800A7808120200
:1034B000DAE50890F25CF079018002790074080284
:1034C000336274F7120C087409120BFEE0FEA3E0DD
:1034D000FFEAF8EBF980188C828D83E0888289837B
:1034E000F0A3A882A9838C828D83A3AC82AD838E46
:1034F000088F09E50824FF1EE50934FFFFE50845AC
:103500000970D47F02020C6E74F8120C08EAF8EB12
:10351000F98C828D83E0A3AC82AD838A828B83F0A9
:10352000A3AA82AB8370EAE8FAE9FB7F01020C6E82
:10353000FFFFFFFFFFFFFFFFFFFFFFFFFFFFFFFF9B
:00000001FF
